{
  "_format": "hh-sol-artifact-1",
  "contractName": "SimpleStorage",
  "sourceName": "contracts/SimpleStorage.sol",
  "abi": [
    {
      "inputs": [],
      "stateMutability": "nonpayable",
      "type": "constructor"
    },
    {
      "inputs": [
        {
          "internalType": "string",
          "name": "_name",
          "type": "string"
        },
        {
          "internalType": "uint256",
          "name": "_favoriteNumber",
          "type": "uint256"
        }
      ],
      "name": "addPerson",
      "outputs": [],
      "stateMutability": "nonpayable",
      "type": "function"
    },
    {
      "inputs": [],
      "name": "favoriteNumber",
      "outputs": [
        {
          "internalType": "uint256",
          "name": "",
          "type": "uint256"
        }
      ],
      "stateMutability": "view",
      "type": "function"
    },
    {
      "inputs": [
        {
          "internalType": "string",
          "name": "",
          "type": "string"
        }
      ],
      "name": "nameToFavoriteNumber",
      "outputs": [
        {
          "internalType": "uint256",
          "name": "",
          "type": "uint256"
        }
      ],
      "stateMutability": "view",
      "type": "function"
    },
    {
      "inputs": [
        {
          "internalType": "uint256",
          "name": "",
          "type": "uint256"
        }
      ],
      "name": "people",
      "outputs": [
        {
          "internalType": "uint256",
          "name": "favoriteNumber",
          "type": "uint256"
        },
        {
          "internalType": "string",
          "name": "name",
          "type": "string"
        }
      ],
      "stateMutability": "view",
      "type": "function"
    },
    {
      "inputs": [],
      "name": "retrieve",
      "outputs": [
        {
          "internalType": "uint256",
          "name": "",
          "type": "uint256"
        }
      ],
      "stateMutability": "view",
      "type": "function"
    },
    {
      "inputs": [
        {
          "internalType": "uint256",
          "name": "_favoriteNumber",
          "type": "uint256"
        }
      ],
      "name": "store",
      "outputs": [],
      "stateMutability": "nonpayable",
      "type": "function"
    }
  ],
  "bytecode": "0x60806040523480156200001157600080fd5b50600a6000819055506002604051806040016040528060005481526020016040518060400160405280600681526020017f4e617468616e00000000000000000000000000000000000000000000000000008152508152509080600181540180825580915050600190039060005260206000209060020201600090919091909150600082015181600001556020820151816001019081620000b2919062000335565b5050506200041c565b600081519050919050565b7f4e487b7100000000000000000000000000000000000000000000000000000000600052604160045260246000fd5b7f4e487b7100000000000000000000000000000000000000000000000000000000600052602260045260246000fd5b600060028204905060018216806200013d57607f821691505b602082108103620001535762000152620000f5565b5b50919050565b60008190508160005260206000209050919050565b60006020601f8301049050919050565b600082821b905092915050565b600060088302620001bd7fffffffffffffffffffffffffffffffffffffffffffffffffffffffffffffffff826200017e565b620001c986836200017e565b95508019841693508086168417925050509392505050565b6000819050919050565b6000819050919050565b600062000216620002106200020a84620001e1565b620001eb565b620001e1565b9050919050565b6000819050919050565b6200023283620001f5565b6200024a62000241826200021d565b8484546200018b565b825550505050565b600090565b6200026162000252565b6200026e81848462000227565b505050565b5b8181101562000296576200028a60008262000257565b60018101905062000274565b5050565b601f821115620002e557620002af8162000159565b620002ba846200016e565b81016020851015620002ca578190505b620002e2620002d9856200016e565b83018262000273565b50505b505050565b600082821c905092915050565b60006200030a60001984600802620002ea565b1980831691505092915050565b6000620003258383620002f7565b9150826002028217905092915050565b6200034082620000bb565b67ffffffffffffffff8111156200035c576200035b620000c6565b5b62000368825462000124565b620003758282856200029a565b600060209050601f831160018114620003ad576000841562000398578287015190505b620003a4858262000317565b86555062000414565b601f198416620003bd8662000159565b60005b82811015620003e757848901518255600182019150602085019450602081019050620003c0565b8683101562000407578489015162000403601f891682620002f7565b8355505b6001600288020188555050505b505050505050565b610a0b806200042c6000396000f3fe608060405234801561001057600080fd5b50600436106100625760003560e01c80632e64cec114610067578063471f7cdf146100855780636057361d146100a35780636f760f41146100bf5780638bab8dd5146100db5780639e7a13ad1461010b575b600080fd5b61006f61013c565b60405161007c9190610328565b60405180910390f35b61008d610145565b60405161009a9190610328565b60405180910390f35b6100bd60048036038101906100b89190610383565b61014b565b005b6100d960048036038101906100d49190610415565b610155565b005b6100f560048036038101906100f091906105b6565b610225565b6040516101029190610328565b60405180910390f35b61012560048036038101906101209190610383565b610253565b60405161013392919061067e565b60405180910390f35b60008054905090565b60005481565b8060008190555050565b6002604051806040016040528083815260200185858080601f016020809104026020016040519081016040528093929190818152602001838380828437600081840152601f19601f8201169050808301925050505050505081525090806001815401808255809150506001900390600052602060002090600202016000909190919091506000820151816000015560208201518160010190816101f891906108ba565b505050806001848460405161020e9291906109bc565b908152602001604051809103902081905550505050565b6001818051602081018201805184825260208301602085012081835280955050505050506000915090505481565b6002818154811061026357600080fd5b906000526020600020906002020160009150905080600001549080600101805461028c906106dd565b80601f01602080910402602001604051908101604052809291908181526020018280546102b8906106dd565b80156103055780601f106102da57610100808354040283529160200191610305565b820191906000526020600020905b8154815290600101906020018083116102e857829003601f168201915b5050505050905082565b6000819050919050565b6103228161030f565b82525050565b600060208201905061033d6000830184610319565b92915050565b6000604051905090565b600080fd5b600080fd5b6103608161030f565b811461036b57600080fd5b50565b60008135905061037d81610357565b92915050565b6000602082840312156103995761039861034d565b5b60006103a78482850161036e565b91505092915050565b600080fd5b600080fd5b600080fd5b60008083601f8401126103d5576103d46103b0565b5b8235905067ffffffffffffffff8111156103f2576103f16103b5565b5b60208301915083600182028301111561040e5761040d6103ba565b5b9250929050565b60008060006040848603121561042e5761042d61034d565b5b600084013567ffffffffffffffff81111561044c5761044b610352565b5b610458868287016103bf565b9350935050602061046b8682870161036e565b9150509250925092565b600080fd5b6000601f19601f8301169050919050565b7f4e487b7100000000000000000000000000000000000000000000000000000000600052604160045260246000fd5b6104c38261047a565b810181811067ffffffffffffffff821117156104e2576104e161048b565b5b80604052505050565b60006104f5610343565b905061050182826104ba565b919050565b600067ffffffffffffffff8211156105215761052061048b565b5b61052a8261047a565b9050602081019050919050565b82818337600083830152505050565b600061055961055484610506565b6104eb565b90508281526020810184848401111561057557610574610475565b5b610580848285610537565b509392505050565b600082601f83011261059d5761059c6103b0565b5b81356105ad848260208601610546565b91505092915050565b6000602082840312156105cc576105cb61034d565b5b600082013567ffffffffffffffff8111156105ea576105e9610352565b5b6105f684828501610588565b91505092915050565b600081519050919050565b600082825260208201905092915050565b60005b8381101561063957808201518184015260208101905061061e565b60008484015250505050565b6000610650826105ff565b61065a818561060a565b935061066a81856020860161061b565b6106738161047a565b840191505092915050565b60006040820190506106936000830185610319565b81810360208301526106a58184610645565b90509392505050565b7f4e487b7100000000000000000000000000000000000000000000000000000000600052602260045260246000fd5b600060028204905060018216806106f557607f821691505b602082108103610708576107076106ae565b5b50919050565b60008190508160005260206000209050919050565b60006020601f8301049050919050565b600082821b905092915050565b6000600883026107707fffffffffffffffffffffffffffffffffffffffffffffffffffffffffffffffff82610733565b61077a8683610733565b95508019841693508086168417925050509392505050565b6000819050919050565b60006107b76107b26107ad8461030f565b610792565b61030f565b9050919050565b6000819050919050565b6107d18361079c565b6107e56107dd826107be565b848454610740565b825550505050565b600090565b6107fa6107ed565b6108058184846107c8565b505050565b5b818110156108295761081e6000826107f2565b60018101905061080b565b5050565b601f82111561086e5761083f8161070e565b61084884610723565b81016020851015610857578190505b61086b61086385610723565b83018261080a565b50505b505050565b600082821c905092915050565b600061089160001984600802610873565b1980831691505092915050565b60006108aa8383610880565b9150826002028217905092915050565b6108c3826105ff565b67ffffffffffffffff8111156108dc576108db61048b565b5b6108e682546106dd565b6108f182828561082d565b600060209050601f8311600181146109245760008415610912578287015190505b61091c858261089e565b865550610984565b601f1984166109328661070e565b60005b8281101561095a57848901518255600182019150602085019450602081019050610935565b868310156109775784890151610973601f891682610880565b8355505b6001600288020188555050505b505050505050565b600081905092915050565b60006109a3838561098c565b93506109b0838584610537565b82840190509392505050565b60006109c9828486610997565b9150819050939250505056fea264697066735822122098f1d28b34ac4c6e1b709b4533a8cffc40e4194e1ea5e0f8eb2eef47e7a78b2a64736f6c63430008120033",
  "linkReferences": {},
  "deployedLinkReferences": {}
}